S01100005350495F736C6176652E73726563AD
S11300000C942A000C9434000C9434000C943400A6
S11300100C9434000C9434000C9434000C9434008C
S11300200C9434000C9434000C9434000C9434007C
S11300300C9434000C9434000C9434000C9434006C
S11300400C9434000C9434000C9434000C9434005C
S11300500C94340011241FBECFE5D8E0DEBFCDBF21
S11300600E9441000C9462000C94000087B38F74CA
S113007087BBBE9A80E48DB90895779BFECF8FB17C
S113008008951F93CF93DF938FEF8ABB0E943600AE
S1130090C4E0D0E012E00E943D00893651F41BBB5D
S11300A02FEF80E792E0215080409040E1F700C0BC
S11300B000001BBA219779F780E090E0DF91CF919F
S10B00C01F910895F894FFCF8D
S9030000FC
