:100000000C946B000C9488000C9488000C9488006D
:100010000C9488000C9488000C9488000C94880040
:100020000C9488000C9488000C9488000C94880030
:100030000C9488000C940E030C9488000C94880097
:100040000C9488000C9488000C9488000C94880010
:100050000C94880007634236B79BD8A71A396856B4
:1000600018AEBAAB558C1D3CB7CC5763BD6DEDFDDA
:10007000753EF6177231BF000000803F0800000097
:10008000BE922449123EABAAAA2ABECDCCCC4C3E8D
:1000900000000080BEABAAAAAA3E00000000BF007C
:1000A0000000803F0000000000084178D3BB438778
:1000B000D1133D190E3CC3BD4282AD2B3E68EC828C
:1000C00076BED98FE1A93E4C80EFFFBE01C4FF7F11
:1000D0003F000000000011241FBECFE5D8E0DEBFC6
:1000E000CDBF11E0A0E6B0E0ECE6FBE102C0059078
:1000F0000D92A030B107D9F721E0A0E0B1E001C036
:100100001D92A13CB207E1F70E9487050C94B40D43
:100110000C94000087B38F7487BBBE9A80E48DB9BE
:1001200008958FB9779BFECF8FB10895779BFECF4F
:100130008FB108958BBB84E088BB8FE99FE0019766
:10014000F1F700C0000018BA8FE39CE90197F1F7BE
:1001500000C00000089588E30E949A008FE99FE0A4
:100160000197F1F700C0000081E00E949A008FE93A
:100170009FE00197F1F700C000008EE00E949A0016
:100180008FE99FE00197F1F700C0000008958BBB55
:1001900085E088BB8FE99FE00197F1F700C0000080
:1001A00081E088BB8FE39CE90197F1F700C0000074
:1001B00008950F931F93CF93DF93662351F08C0123
:1001C000EC01060F111D89910E94C700C017D107CD
:1001D000D1F7DF91CF911F910F91089581E00E9497
:1001E0009A00089580E80E949A0008958BBBC198F8
:1001F00088B3856088BB85E08A95F1F70000C298D6
:100200008FE99FE00197F1F700C000000895CF92B9
:10021000DF92EF92FF92CF9310921501109214018A
:100220001092130187E090E041E050E0939A25E3BB
:100230002A95F1F70000829B0DC0609115019A018B
:10024000082E02C0220F331F0A94E2F7262B2093B8
:1002500015010DC09A01082E02C0220F331F0A9407
:10026000E2F72095309115012323209315019398EF
:100270002AE12A95F1F700C00197C0F68FE090E0DF
:1002800041E050E0939A25E32A95F1F70000829B24
:1002900012C060911301709114019A01082E02C0DE
:1002A000220F331F0A94E2F7262B372B30931401C9
:1002B0002093130113C09A01082E02C0220F331F8E
:1002C0000A94E2F720953095609113017091140122
:1002D00026233723309314012093130193982AE1A6
:1002E0002A95F1F700C0019768F68091130190916B
:1002F0001401969587959093140180931301609152
:10030000150160FF05C0906890931401809313015C
:10031000C62FC695C0931501609113017091140109
:1003200080E090E00E94D00723E33BED4CE856E4E8
:100330000E9428076B017C016C2F70E080E090E048
:100340000E94D20724E632EA48E650E40E9463089D
:100350009B01AC01C701B6010E94BC06CF91FF9082
:10036000EF90DF90CF9008952AB128692AB920B57F
:10037000266820BD9B01AC01220F331F441F551F6F
:1003800060E472E48FE090E00E94790A8FEF820FC0
:1003900089B9DA01C9010197A109B109892F9A2FF9
:1003A000AB2FBB2780BD08958CB95D9BFECF089510
:1003B000CF93DF93EC018881882331F021960E944E
:1003C000D40189918111FBCFDF91CF910895A69A35
:1003D0000895AE9A80E58A95F1F7AE9808959F99B1
:1003E00018C081E090E0A0E0B0E09F990DC00196B8
:1003F000A11DB11D803C27E2920729E0A207B105AB
:10040000A1F78FEF9FEF0895803C9742A940B10577
:10041000C9F11FBC82E08EBD1DBC1CBC9F9B22C0CD
:100420008CB59DB581369A4EE8F481E090E0A0E06D
:10043000B0E09F9B12C02CB53DB521363A4E68F412
:100440000196A11DB11D803C27E2920729E0A20779
:10045000B10579F78EEF9FEF0895803C9742A94050
:10046000B10599F08CB59DB5A0E0B0E01EBC813619
:100470002AEE9207A105B10558F4B695A795979570
:10048000879508958FEF9FEF08958EEF9FEF089562
:100490008EEF9FEF08952FEF81EE94E02150804082
:1004A0009040E1F700C000000E94E7010E94E901CE
:1004B0000E94EF01BC0180E090E00E94D00726E995
:1004C00033E44BE05DE30E94630820E030E040E06D
:1004D0005FE30E9463080E949A077093BB016093D8
:1004E000BA019B012E5231092430310570F070930E
:1004F0001701609316012FEF86E791E021508040AD
:100500009040E1F700C00000D1CF81E090E09093EF
:1005100012018093110108952FEF81EE94E0215094
:1005200080409040E1F700C000000E94E7010E9477
:10053000E9010E94EF01BC0180E090E00E94D00739
:1005400026E933E44BE05DE30E94630820E030E0FD
:1005500040E05FE30E9463080E949A077093BB012A
:100560006093BA019B012E5231092430310570F09D
:1005700070931701609316012FEF86E791E02150E9
:1005800080409040E1F700C00000D1CF81E090E0D2
:100590009093100180930F0108952FEF81EE94E066
:1005A000215080409040E1F700C000000E94E70128
:1005B0000E94E9010E94EF01BC0180E090E00E94EE
:1005C000D00726E933E44BE05DE30E94630820E0B6
:1005D00030E040E05FE30E9463080E949A07709356
:1005E000BB016093BA019B012E52310924303105C1
:1005F00070F070931701609316012FEF86E791E07A
:10060000215080409040E1F700C00000D1CF81E050
:1006100090E090930E0180930D0108951F920F9228
:100620000FB60F9211248F939F93EF93FF93E09156
:10063000BF01F091C0018CB1E85EFE4F80838091D4
:10064000BF019091C00101969093C0018093BF01BA
:1006500081E080930C01FF91EF919F918F910F901A
:100660000FBE0F901F901895EF92FF920F931F935C
:10067000CF93DF93CDB7DEB7A3970FB6F894DEBF65
:100680000FBECDBF8B011092C0011092BF019F938E
:100690008F9380E690E09F938F93CE0101967C012B
:1006A0009F938F930E94CA0AC7010E94D8019FEFAF
:1006B00029EF80E0915020408040E1F700C0000029
:1006C000E091BF01F091C001E85EFE4F0F900F90E6
:1006D0000F900F900F900F9080818E33C1F5109284
:1006E000C0011092BF010F2EF8E1EF2EF1E0FF2EB6
:1006F000F02DF70101900020E9F73197AF01485143
:10070000514060E070E0C7010E949B0AC8010E944E
:10071000D8018AE10E94D4019FEF26E781E0915041
:1007200020408040E1F700C000001092C00110920C
:10073000BF01F70101900020E9F73197AF0148515F
:10074000514060E070E0C7010E949B0A13C0809195
:10075000BF019091C00101969093C0018093BF01A9
:10076000E091BF01F091C001E85EFE4F80818E33C1
:1007700071F7B5CFA3960FB6F894DEBF0FBECDBF0D
:10078000DF91CF911F910F91FF90EF9008950F93FC
:100790001F93CF93DF93CDB7DEB7A3970FB6F8942F
:1007A000DEBF0FBECDBF8091BD018F938091BC0194
:1007B0008F93809109018F93809108018F938EE62A
:1007C00090E09F938F938E010F5F1F4F1F930F93A6
:1007D0000E94CA0AC8010E94D8010FB6F894DEBF71
:1007E0000FBECDBFA3960FB6F894DEBF0FBECDBF30
:1007F000DF91CF911F910F910895CF93DF931092C6
:10080000C0011092BF01E091BF01F091C001E85E0C
:10081000FE4F80818D3049F0E091BF01F091C00121
:10082000E85EFE4F80818A3051F48091BF01909143
:10083000C00101969093C0018093BF01E4CF80EC8A
:100840000E949A00C0E0D0E019C0E091BF01F09191
:10085000C001E85EFE4F80810E94F6008091BF01DA
:100860009091C00101969093C0018093BF012196A1
:10087000CF30D10519F480E80E949A00E091BF01C1
:10088000F091C001E85EFE4F80818D30F1F610924C
:10089000C0011092BF01E8E1F1E001900020E9F70A
:1008A0003197AF014851514060E070E088E191E03C
:1008B0000E949B0ADF91CF9108956F927F928F9251
:1008C0009F92AF92BF92CF92DF92EF92FF920F93DF
:1008D0001F93CF93DF9300D0CDB7DEB7E12CF12C7F
:1008E0000F2EF8E1CF2EF1E0DF2EF02D612C712CD0
:1008F000F60101900020E9F73197E851F140F1F15C
:10090000AFE3BFE11197F1F700C00000BFEFEB1AB2
:10091000FB0AD6010D900020E9F71197A851B140CC
:10092000EA17FB0759F51E161F0644F50F2EF8E1CE
:10093000AF2EF1E0BF2EF02D8F01085E1E4F862CEA
:10094000972C8A818983F50181915F018A8342E036
:1009500050E066E870E0CE0101960E94A20A892B61
:1009600051F0C4010196F2E08F16910419F40E942F
:10097000FD0313C04C01A016B10619F78FE99FE0E3
:100980000197F1F700C000009FEFE91AF90AA0E60D
:10099000EA16AAEEFA0608F4ABCF0F900F90DF919B
:1009A000CF911F910F91FF90EF90DF90CF90BF906C
:1009B000AF909F908F907F906F90089580EC0E94F1
:1009C0009A0089E890E00E94D8012FEF86E791E035
:1009D000215080409040E1F700C000006FE870E0D7
:1009E00088E191E00E94B00A892B71F10E945D04B8
:1009F00080EAE8E1F1E0DF011D928A95E9F7BFEFB7
:100A000020E782E0B15020408040E1F700C00000C4
:100A10000E94EE000E94F20069E082E990E00E94EC
:100A2000D90080EC0E949A008CE990E00E94D801E5
:100A30000E945D049FEFA3EFB1E09150A040B04051
:100A4000E1F700C0000008950E94F20065E087EA27
:100A500090E00E94D900B2CFCF93C1E0C4BB15BAD9
:100A6000C5BB8FE99FE00197F1F700C0000015BA00
:100A70000E944B029FEF23ED80E391502040804085
:100A8000E1F700C00000C5BB8FE697E10197F1F7E1
:100A900000C0000015BA0E948C029FEF23ED80E396
:100AA000915020408040E1F700C00000C5BB8FE3BB
:100AB0009FE10197F1F700C0000015BA0E94CD0236
:100AC0009FEF23ED80E3915020408040E1F700C08C
:100AD00000008091040190910501019789F48091B3
:100AE000020190910301019771F481E090E020915F
:100AF0000001309101012130310539F080E005C05D
:100B000080E090E002C080E090E0CF9108958F9265
:100B10009F92AF92BF92FF920F931F93CF93DF9359
:100B2000CDB7DEB72A970FB6F894DEBF0FBECDBFA4
:100B30008FEF8ABB87E087BB1092C0011092BF0184
:100B40000E948A000E94960090E090930701809393
:100B500006018FE39CE90197F1F700C00000809146
:100B60000601909107010297D1F500E010E00E9484
:100B70009600F82EB801012E000C880B990B0E94EC
:100B8000D2079B01AC0160E070E080E291E40E943A
:100B9000D0084B015C016F2D70E080E090E00E9476
:100BA000D207A50194010E9463080E949A07209130
:100BB000080130910901620F731F7093090160935E
:100BC00008019FEF29EF80E0915020408040E1F73D
:100BD00000C000000F5F1F4F0A30110541F60E9450
:100BE000070120E030E040E751E40E945E0818165B
:100BF00054F40E942C05892B31F081E090E0909311
:100C00000B0180930A0180910A010E9491000E94C9
:100C1000960090E09093B9018093B8010E94AB00D8
:100C200060E875E280E090E00E94B40178940E9450
:100C3000F20060E18DEA90E00E94D9009FEF24E687
:100C400084E0915020408040E1F700C000000E9405
:100C5000EE000E94F20062E08EEB90E00E94D9006C
:100C60000E94DE040E94EE0088EE93E09093BD01A6
:100C70008093BC018091060190910701813091051C
:100C800019F482E085BB65C08230910541F40E9471
:100C9000C7036BE081EC90E00E94D9005AC0039733
:100CA00009F057C083E08F9388EE8F938DEC90E02E
:100CB0009F938F938E010F5F1F4F1F930F930E947F
:100CC000CA0AB80183ED90E00E943403F801019054
:100CD0000020E9F73197AF01401B510B60E070E055
:100CE000C8010E949B0A60E189ED90E00E94D90052
:100CF0009FEF2AE683E0915020408040E1F700C05A
:100D000000000E94EE006EE08AEE90E00E94D900A2
:100D10009FEF26E781E0915020408040E1F700C03E
:100D200000000E94EE0066E089EF90E00E94D9008A
:100D30009FEF26E781E0915020408040E1F700C01E
:100D400000000E94EE000F900F900F900F900F90F8
:100D50000F9080E090E02A960FB6F894DEBF0FBEA9
:100D6000CDBFDF91CF911F910F91FF90BF90AF90BA
:100D70009F908F9008955058BB27AA270E94D306B2
:100D80000C9424080E94160838F00E941D0820F0D8
:100D900039F49F3F19F426F40C9413080EF4E095EF
:100DA000E7FB0C940D08E92F0E94350858F3BA1799
:100DB000620773078407950720F079F4A6F50C9471
:100DC00057080EF4E0950B2EBA2FA02D0B01B90198
:100DD00090010C01CA01A0011124FF27591B99F0B1
:100DE000593F50F4503E68F11A16F040A22F232FBD
:100DF000342F4427585FF3CF469537952795A7950D
:100E0000F0405395C9F77EF41F16BA0B620B730BB3
:100E1000840BBAF09150A1F0FF0FBB1F661F771F24
:100E2000881FC2F70EC0BA0F621F731F841F48F4D9
:100E3000879577956795B795F7959E3F08F0B0CF62
:100E40009395880F08F09927EE0F97958795089549
:100E50000E943C070C9424080E941D0858F00E9430
:100E6000160840F029F45F3F29F00C940D08511149
:100E70000C9458080C9413080E94350868F39923C1
:100E8000B1F3552391F3951B550BBB27AA27621786
:100E90007307840738F09F5F5F4F220F331F441F93
:100EA000AA1FA9F335D00E2E3AF0E0E832D09150C7
:100EB0005040E695001CCAF72BD0FE2F29D0660FB4
:100EC000771F881FBB1F261737074807AB07B0E8F7
:100ED00009F0BB0B802DBF01FF2793585F4F3AF0FD
:100EE0009E3F510578F00C940D080C9458085F3F14
:100EF000E4F3983ED4F3869577956795B795F79583
:100F00009F5FC9F7880F911D9695879597F908956A
:100F1000E1E0660F771F881FBB1F62177307840706
:100F2000BA0720F0621B730B840BBA0BEE1F88F715
:100F3000E09508950E94A1076894B1110C94580897
:100F400008950E943D0888F09F5798F0B92F99277F
:100F5000B751B0F0E1F0660F771F881F991F1AF0A4
:100F6000BA95C9F714C0B13091F00E945708B1E0AA
:100F700008950C945708672F782F8827B85F39F0A9
:100F8000B93FCCF3869577956795B395D9F73EF43D
:100F900090958095709561957F4F8F4F9F4F0895E5
:100FA000E89409C097FB3EF4909580957095619503
:100FB0007F4F8F4F9F4F9923A9F0F92F96E9BB27B9
:100FC0009395F695879577956795B795F111F8CF35
:100FD000FAF4BB0F11F460FF1BC06F5F7F4F8F4FA0
:100FE0009F4F16C0882311F096E911C0772321F096
:100FF0009EE8872F762F05C0662371F096E8862F2E
:1010000070E060E02AF09A95660F771F881FDAF784
:10101000880F9695879597F9089597F99F6780E8C7
:1010200070E060E008959FEF80EC089500240A943A
:101030001616170618060906089500240A941216B3
:101040001306140605060895092E0394000C11F4E6
:10105000882352F0BB0F40F4BF2B11F460FF04C093
:101060006F5F7F4F8F4F9F4F089557FD9058440FEC
:10107000551F59F05F3F71F04795880F97FB991FF7
:1010800061F09F3F79F087950895121613061406B4
:10109000551FF2CF4695F1DF08C016161706180641
:1010A000991FF1CF86957105610508940895E8941C
:1010B000BB2766277727CB0197F908950E945A0925
:1010C00008F48FEF08950E9476080C9424080E947B
:1010D000160838F00E941D0820F0952311F00C949A
:1010E0000D080C94130811240C9458080E9435081C
:1010F00070F3959FC1F3950F50E0551F629FF0016B
:10110000729FBB27F00DB11D639FAA27F00DB11D83
:10111000AA1F649F6627B00DA11D661F829F22270C
:10112000B00DA11D621F739FB00DA11D621F839F93
:10113000A00D611D221F749F3327A00D611D231F69
:10114000849F600D211D822F762F6A2F11249F57B7
:1011500050409AF0F1F088234AF0EE0FFF1FBB1FBA
:10116000661F771F881F91505040A9F79E3F510579
:1011700080F00C940D080C9458085F3FE4F3983EFF
:10118000D4F3869577956795B795F795E7959F5F23
:10119000C1F7FE2B880F911D9695879597F90895B5
:1011A000FA01EE0FFF1F309621053105A1F16115FF
:1011B000710561F48038BFE39B0749F1689490386A
:1011C000810561F08038BFEF9B0741F099234AF514
:1011D000FF3FE1053105210519F1E8940894E795F1
:1011E000D901AA2329F4AB2FBE2FF85FD0F310C08A
:1011F000FF5F70F4A695E0F7F73950F019F0FF3A69
:1012000038F49F779F930DD00F9007FC9058089566
:1012100046F00C94130860E070E080E89FE30895C6
:101220004FE79F775F934F933F932F930E94EF0970
:101230002F913F914F915F910E9463080C94280970
:1012400029F416F00C940D080C9457080C9413080C
:101250000E943D08A8F39638A0F707F80F92E8948B
:101260002BE33AEA48EB5FE70E9479080F920F926E
:101270000F924DB75EB70F920E94370AE4E5F0E097
:101280000E947E094F915F91EF91FF91E595EE1FCE
:10129000FF1F49F0FE57E0684427EE0F441FFA9500
:1012A000E1F74195550B0E94B1090F9007FE0C9490
:1012B000A5090895990F0008550FAA0BE0E8FEEF65
:1012C00016161706E807F907C0F012161306E4070A
:1012D000F50798F0621B730B840B950B39F40A2603
:1012E00061F0232B242B252B21F408950A2609F4E1
:1012F000A140A6958FEF811D811D0895DF93CF93A7
:101300001F930F93FF92EF92DF927B018C01689401
:1013100006C0DA2EEF010E947608FE01E894A5913E
:101320002591359145915591A6F3EF010E94D30681
:10133000FE019701A801DA9469F7DF90EF90FF9022
:101340000F911F91CF91DF9108959B01AC0160E057
:1013500070E080E89FE30C9428070C940D080C942F
:101360006B0A0E943D08D8F39923C9F3940F511DCD
:10137000A3F39150504094F059F0882332F0660F57
:10138000771F881F91505040C1F79E3F51052CF7A1
:10139000880F911D9695879597F908955F3FACF05A
:1013A000983E9CF0BB27869577956795B79508F48E
:1013B000B1609395C1F7BB0F58F711F460FFE8CF08
:1013C0006F5F7F4F8F4F9F4FE3CF0C94580816F0FD
:1013D0000C946B0A0C94130868940C940D080E94EA
:1013E0003D08A8F39923C1F3AEF3DF93CF931F9386
:1013F0000F93FF92C92FDD2788232AF02197660FCC
:10140000771F881FDAF720E030E040E85FEB9FE3CA
:10141000883920F0803E38F021968F770E94BC06F4
:10142000ECE7F0E004C00E94BC06E9EAF0E00E94AC
:101430007E098B01BE01EC01FB2E6F57710975957A
:10144000771F880B990B0E94D20728E132E741E30E
:101450005FE30E947608AF2D9801AE01FF900F91D7
:101460001F91CF91DF910E94D3060C942408FA01BA
:10147000DC01AA0FBB1F9B01AC01BF5728F4222738
:1014800033274427507820C0B75190F4AB2F002465
:10149000469537952795011CA395D2F3002071F04E
:1014A000220F331F441FB395DAF30ED00C94BB0602
:1014B00061307105A0E88A07B94630F49B01AC01A0
:1014C0006627772788279078309621F0208331830C
:1014D0004283538308959F3F31F0915020F48795C4
:1014E00077956795B795880F911D9695879597F98C
:1014F0000895A1E21A2EAA1BBB1BFD010DC0AA1F55
:10150000BB1FEE1FFF1FA217B307E407F50720F06C
:10151000A21BB30BE40BF50B661F771F881F991FE7
:101520001A9469F760957095809590959B01AC0130
:10153000BD01CF010895DC0101C06D9341505040C1
:10154000E0F70895FB01DC014150504030F08D91EF
:101550000190801919F40020B9F7881B990B0895A0
:10156000FB0151915523A9F0BF01DC014D914517B5
:101570004111E1F759F4CD010190002049F04D915E
:1015800040154111C9F3FB014111EFCF81E090E01B
:1015900001970895AEE0B0E0E0EDFAE00C948B0D19
:1015A0000D891E8986E08C831A8309838FEF9FE75C
:1015B0009E838D83AE01475E5F4F6F89788DCE012C
:1015C00001960E94EC0AEF81F885E00FF11F10826E
:1015D0002E96E4E00C94A70DABE0B0E0E2EFFAE069
:1015E0000C947D0D6C017B018A01FC01178216822F
:1015F000838181FFCCC1CE0101963C01F60193812C
:10160000F70193FD859193FF81917F01882309F470
:10161000BAC1853239F493FD859193FF81917F01A1
:10162000853229F4B60190E00E94E30CE7CF912CBB
:10163000212C312CFFE1F315D8F08B3279F038F4FE
:10164000803279F08332A1F4232D20611DC08D32C8
:1016500061F0803369F4232D216016C0832D8260F0
:10166000382EE32DE4603E2E2AC0F32DF8601DC015
:1016700037FC2DC020ED280F2A3040F08E32B9F40F
:1016800036FC81C1232D2064322E19C036FE06C0DF
:101690008AE0989E200D1124922E11C0EAE02E9E21
:1016A000200D1124222EF32DF0623F2E08C08C361F
:1016B00021F4832D8068382E02C0883641F4F7016A
:1016C00093FD859193FF81917F018111B3CF982F75
:1016D0009F7D9554933028F40C5F1F4F9FE39983AF
:1016E0000DC0833631F0833771F0833509F059C06E
:1016F00021C0F801808189830E5F1F4F8824839465
:10170000912C530113C02801F2E04F0E511CF80137
:10171000A080B18036FE03C0692D70E002C06FEF7B
:101720007FEFC5010E94D80C4C018201F32DFF7799
:101730003F2E16C0280122E0420E511CF801A08065
:10174000B18036FE03C0692D70E002C06FEF7FEFFD
:10175000C5010E94CD0C4C01F32DF0683F2E820193
:1017600033FC1BC0822D90E088169906B0F4B601B8
:1017700080E290E00E94E30C2A94F4CFF50137FC5C
:10178000859137FE81915F01B60190E00E94E30CE4
:1017900021102A9421E0821A91088114910471F792
:1017A000E8C0843611F0893641F5F80137FE07C0EC
:1017B00060817181828193810C5F1F4F08C06081BD
:1017C0007181072E000C880B990B0E5F1F4FF32DB4
:1017D000FF763F2E97FF09C0909580957095619593
:1017E0007F4F8F4F9F4FF0683F2E2AE030E0A301DC
:1017F0000E941F0D882E861845C0853731F4232D91
:101800002F7EB22E2AE030E025C0932D997FB92E8D
:101810008F36C1F018F4883579F0B5C0803719F0EB
:10182000883721F0B0C0E92FE061BE2EB4FE0DC0B4
:10183000FB2DF460BF2E09C034FE0AC0292F26609C
:10184000B22E06C028E030E005C020E130E002C042
:1018500020E132E0F801B7FE07C06081718182812A
:1018600093810C5F1F4F06C06081718180E090E022
:101870000E5F1F4FA3010E941F0D882E8618FB2D9F
:10188000FF773F2E36FE0DC0232D2E7FA22E89140A
:1018900058F434FE0BC032FC09C0832D8E7EA82E76
:1018A00005C0B82CA32C03C0B82C01C0B92CA4FED1
:1018B0000FC0FE01E80DF11D8081803321F49A2DC7
:1018C000997EA92E09C0A2FE06C0B394B39404C0A9
:1018D0008A2D867809F0B394A3FC11C0A0FE06C03F
:1018E000B21488F4280C922C9B180EC0B21460F429
:1018F000B60180E290E00E94E30CB394F7CFB214FB
:1019000018F42B1802C0982C212CA4FE10C0B6018C
:1019100080E390E00E94E30CA2FE17C0A1FC03C08C
:1019200088E790E002C088E590E0B6010CC08A2DFF
:10193000867859F0A1FE02C08BE201C080E2A7FCCC
:101940008DE2B60190E00E94E30C891438F4B601F0
:1019500080E390E00E94E30C9A94F7CF8A94F3011D
:10196000E80DF11D8081B60190E00E94E30C81102A
:10197000F5CF222009F442CEB60180E290E00E9429
:10198000E30C2A94F6CFF6018681978102C08FEF8F
:101990009FEF2B96E2E10C94990DFC0105906150AC
:1019A00070400110D8F7809590958E0F9F1F089575
:1019B000FC016150704001900110D8F7809590951E
:1019C0008E0F9F1F08950F931F93CF93DF93FB01FB
:1019D000238121FD03C08FEF9FEF2CC022FF16C093
:1019E00046815781248135814217530744F4A081F1
:1019F000B1819D012F5F3F4F318320838C932681DE
:101A000037812F5F3F4F3783268314C08B01EC0152
:101A1000FB010084F185E02D0995892BE1F6D801C1
:101A200016968D919C911797019617969C938E937D
:101A30001697CE01DF91CF911F910F910895FA0172
:101A4000AA27283051F1203181F1E8946F936E7FFD
:101A50006E5F7F4F8F4F9F4FAF4FB1E03ED0B4E0EE
:101A60003CD0670F781F891F9A1FA11D680F791F2F
:101A70008A1F911DA11D6A0F711D811D911DA11D40
:101A800020D009F468943F912AE0269F1124301950
:101A9000305D3193DEF6CF010895462F4770405DEB
:101AA0004193B3E00FD0C9F7F6CF462F4F70405D9A
:101AB0004A3318F0495D31FD4052419302D0A9F7F5
:101AC000EACFB4E0A6959795879577956795BA95EF
:101AD000C9F700976105710508959B01AC010A2EB5
:101AE00006945795479537952795BA95C9F7620F8C
:101AF000731F841F951FA01D08952F923F924F9230
:101B00005F926F927F928F929F92AF92BF92CF928D
:101B1000DF92EF92FF920F931F93CF93DF93CDB796
:101B2000DEB7CA1BDB0B0FB6F894DEBF0FBECDBF0E
:101B300009942A88398848885F846E847D848C84DF
:101B40009B84AA84B984C884DF80EE80FD800C81E8
:101B50001B81AA81B981CE0FD11D0FB6F894DEBFCB
:0C1B60000FBECDBFED010895F894FFCF3B
:101B6C0041542B434D47533D222573220D004154C4
:101B7C00442331313123322325642325642331322C
:101B8C003334233B0D000D0A00415445300D004FFA
:101B9C004B0054657874204D6F64650041542B43A1
:101BAC004D47463D310D004572726F720047534DE3
:101BBC0020496E697469616C697A696E6700415479
:101BCC000052656C6F61642073656E64004C482034
:101BDC002564003737313130002E2E2E2E2E5365D2
:101BEC006E64696E672E2E2E2E0053656E742074F3
:101BFC006F204C6974746C65004865617274730075
:00000001FF
