S01100005350495F736C6176652E73726563AD
S11300000C942A000C9434000C9434000C943400A6
S11300100C9434000C9434000C9434000C9434008C
S11300200C9434000C9434000C9434000C9434007C
S11300300C9434000C9434000C9434000C9434006C
S11300400C9434000C9434000C9434000C9434005C
S11300500C94340011241FBECFE5D8E0DEBFCDBF21
S11300600E9441000C947E000C94000087B38F74AE
S113007087BBBE9A80E48DB90895779BFECF8FB17C
S11300800895FF920F931F93CF93DF938FEF8ABB53
S11300900E943600C4E0D0E06894FF24F3F814E032
S11300A002E00E943D008B3611F41BBB1DC0893653
S11300B041F40BBB8FE19EE40197F1F700C000000F
S11300C013C08E3641F41BBB8FE19EE40197F1F718
S11300D000C0000009C0873639F4FBBA8FE19EE402
S11300E00197F1F700C000002197D9F680E090E075
S11300F0DF91CF911F910F91FF900895F894FFCF56
S9030000FC
