S011000066696E616C5F6C63642E7372656377
S11300000C942A000C943F000C943F000C943F0085
S11300100C943F000C943F000C943F000C943F0060
S11300200C943F000C943F000C943F000C943F0050
S11300300C943F000C943F000C943F000C943F0040
S11300400C943F000C943F000C943F000C943F0030
S11300500C943F0011241FBECFE5D8E0DEBFCDBF16
S113006010E0A0E6B0E0E4E1F2E002C005900D92F9
S1130070AE37B107D9F70E94F3000C9408010C9431
S1130080000092B39F70282F207F922B92BB92B3D3
S11300909E7F92BB92B3926092BB35E03A95F1F7A2
S11300A0000092B39D7F92BBEFE1F3E03197F1F74B
S11300B000C0000022B3F0E18F9FC0011124922FF1
S11300C09F70892B82BB82B3826082BB35E03A95F4
S11300D0F1F7000082B38D7F82BB8FE39FE101972C
S11300E0F1F700C0000008958FEF81BB8FE59AEE11
S11300F00197F1F700C0000082E00E94410088E20D
S11301000E9441008CE00E94410086E00E94410070
S113011081E00E9441008FE39FE10197F1F700C065
S113012000000895FC0160E070E034C082B38F7079
S1130130907F982B92BB82B3816082BB82B3826032
S113014082BB85E08A95F1F7000082B38D7F82BB84
S11301508FE193E00197F1F700C0000042B39C9156
S113016080E1989F90011124942F9F70292B22BB2A
S113017092B3926092BB95E09A95F1F7000092B326
S11301809D7F92BB8FE39FE10197F1F700C00000D0
S11301906F5F7F4FDF01A60FB71F9C919111C6CFF0
S11301A00895CF93DF9300D0CDB7DEB790E899835D
S11301B090EC9A83E62FF0E0319721E030E02C0FA9
S11301C03D1FE20FF31F9081890F81500E9441006F
S11301D08FE891E00197F1F700C000000F900F90B5
S11301E0DF91CF9108950E94740061E082E00E9443
S11301F0D10080E690E00E94920062E082E00E94DA
S1130200D1008FE690E00E94920080E090E0089593
S1070210F894FFCF8C
S113021468656C6C6F20637573746F6D65720045EB
S11102246E74657220796F75722063616E00CE
S9030000FC
