:100000000C942A000C9434000C9434000C943400AA
:100010000C9434000C9434000C9434000C94340090
:100020000C9434000C9434000C9434000C94340080
:100030000C9434000C9434000C9434000C94340070
:100040000C9434000C9434000C9434000C94340060
:100050000C94340011241FBECFE5D8E0DEBFCDBF25
:100060000E943E000C945B000C94000085B38460F9
:1000700085BB089585B38B7F85BB089584B3846069
:1000800084BB85B38B7F85BB0E9436002FEF83E254
:1000900094EF215080409040E1F700C000000E94A2
:1000A0003A002FEF83E294EF215080409040E1F737
:0A00B00000C00000E9CFF894FFCF74
:00000001FF
