S018000070726573656E746174696F6E5F6972322E7372656384
S11300000C942A000C9447000C9447000C9447006D
S11300100C9447000C9447000C9447000C94470040
S11300200C9447000C9447000C9447000C94470030
S11300300C9447000C9447000C9447000C94470020
S11300400C9447000C9447000C9447000C94470010
S11300500C94470011241FBECFE5D8E0DEBFCDBF0E
S113006010E0A0E6B0E0EEE1F2E002C005900D92EF
S1130070A239B107D9F720E0A2E9B0E001C01D928E
S1130080A239B207E1F70E94DD000C940D010C9433
S1130090000098B39E7F98BB98B39D7F98BB982F20
S11300A0907F95BB92B3916092BBEFE9FFE03197EB
S11300B0F1F700C0000092B39E7F92BB8295807FCF
S11300C085BB82B3816082BB8FE99FE00197F1F722
S11300D000C0000082B38E7F82BB089598B3916004
S11300E098BB98B39D7F98BB982F907F95BB92B394
S11300F0916092BBEFE1FEE43197F1F700C000009C
S113010092B39E7F92BB8295807F85BB82B38160D0
S113011082BB8FE19EE40197F1F700C0000082B337
S11301208E7F82BB08950F931F93CF93DF938C012F
S1130130C0E0D0E004C090E00E946E002196F80177
S1130140EC0FFD1F80818111F6CFDF91CF911F91BC
S11301500F91089580EF84BB81B3816081BB8FEFE1
S113016087BB82B38E7F82BB83E30E94490082E314
S11301700E94490088E20E9449008EE00E944900E2
S113018080E690E00E9493002FEF83EF91E02150EE
S113019080409040E1F700C0000081E00E944900E7
S11301A08FE39FE10197F1F700C0000080E80E940F
S11301B0490080EC0E94490008950E94AA00989B7F
S11301C0FECF80E80E94490088E690E00E949300F8
S11301D080EC0E94490087E790E00E94930080E849
S11301E00E9449002FEF81EE94E02150804090401E
S11301F0E1F700C0000081E00E9449008CE790E034
S11302000E94930080EC0E9449008EE890E00E94D6
S1110210930080E80E944900D2CFF894FFCFFB
S113021E57454C434F4D45004469736361726420E6
S113022E62696E2069730066756C6C00436C65615F
S113023E7220746865206469736361726400626914
S105024E6E003C
S9030000FC
