:100000000C942A000C9447000C9447000C94470071
:100010000C9447000C9447000C9447000C94470044
:100020000C9447000C9447000C9447000C94470034
:100030000C9447000C94E9000C9447000C94470082
:100040000C9447000C9447000C9447000C94470014
:100050000C94470011241FBECFE5D8E0DEBFCDBF12
:1000600011E0A0E6B0E0EAEDFDE002C005900D92DF
:10007000AC30B107D9F721E0ACE0B1E001C01D928E
:10008000A43BB207E1F70E9405030C94EB060C9425
:1000900000008BBB84E088BB8FE99FE00197F1F7FC
:1000A00000C0000018BA8FE39CE90197F1F700C087
:1000B0000000089588E30E9449008FE99FE00197BE
:1000C000F1F700C0000081E00E9449008FE99FE045
:1000D0000197F1F700C000008EE00E9449008FE90F
:1000E0009FE00197F1F700C0000008958BBB85E009
:1000F00088BB8FE99FE00197F1F700C0000081E025
:1001000088BB8FE39CE90197F1F700C000000895D8
:100110000F931F93CF93DF93662351F08C01EC0173
:10012000060F111D89910E947600C017D107D1F7E3
:10013000DF91CF911F910F91089581E00E944900B6
:10014000089580E80E94490008958BBBC19888B348
:10015000856088BB85E08A95F1F70000C2988FE939
:100160009FE00197F1F700C0000008952AB12869C7
:100170002AB920B5266820BD9B01AC01220F331F90
:10018000441F551F60E472E48FE090E00E94B003CA
:100190008FEF820F89B9DA01C9010197A109B1096D
:1001A000892F9A2FAB2FBB2780BD08958CB95D9BFB
:1001B000FECF0895CF93DF93EC018881882331F03F
:1001C00021960E94D60089918111FBCFDF91CF91BA
:1001D00008951F920F920FB60F9211248F939F9341
:1001E000EF93FF93E091B201F091B3018CB1E35F23
:1001F000FE4F80838091B2019091B301019690935C
:10020000B3018093B20181E080930C01FF91EF91E3
:100210009F918F910F900FBE0F901F901895EF92A6
:10022000FF920F931F93CF93DF93CDB7DEB7A397C2
:100230000FB6F894DEBF0FBECDBF8B011092B30195
:100240001092B2019F938F938BE690E09F938F93D0
:10025000CE0101967C019F938F930E940104C701F8
:100260000E94DA009FEF29EF80E09150204080400B
:10027000E1F700C00000E091B201F091B301E35F4B
:10028000FE4F0F900F900F900F900F900F90808166
:100290008E33C1F51092B3011092B2010F2EFDE022
:1002A000EF2EF1E0FF2EF02DF70101900020E9F78D
:1002B0003197AF014D50514060E070E0C7010E949E
:1002C000D203C8010E94DA008AE10E94D6009FEFA3
:1002D00026E781E0915020408040E1F700C0000017
:1002E0001092B3011092B201F70101900020E9F7DA
:1002F0003197AF014D50514060E070E0C7010E945E
:10030000D20313C08091B2019091B30101969093F2
:10031000B3018093B201E091B201F091B301E35FC8
:10032000FE4F80818E3371F7B5CFA3960FB6F89448
:10033000DEBF0FBECDBFDF91CF911F910F91FF9018
:10034000EF9008950F931F93CF93DF93CDB7DEB750
:10035000A3970FB6F894DEBF0FBECDBF8091B0015A
:100360008F938091AF018F9380E690E09F938F935E
:1003700089E790E09F938F938E010F5F1F4F1F932C
:100380000F930E940104C8010E94DA000FB6F8948E
:10039000DEBF0FBECDBFA3960FB6F894DEBF0FBE73
:1003A000CDBFDF91CF911F910F910895CF93DF9330
:1003B0001092B3011092B201E091B201F091B30139
:1003C000E35FFE4F80818D3049F0E091B201F09102
:1003D000B301E35FFE4F80818A3051F48091B20116
:1003E0009091B30101969093B3018093B201E4CF51
:1003F00080EC0E944900C0E0D0E019C0E091B20159
:10040000F091B301E35FFE4F80810E94A5008091CF
:10041000B2019091B30101969093B3018093B20120
:100420002196CF30D10519F480E80E944900E0916F
:10043000B201F091B301E35FFE4F80818D30F1F6A0
:100440001092B3011092B201EDE0F1E001900020B2
:10045000E9F73197AF014D50514060E070E08DE019
:1004600091E00E94D203DF91CF9108956F927F9225
:100470008F929F92AF92BF92CF92DF92EF92FF92B4
:100480000F931F93CF93DF9300D0CDB7DEB7E12C4E
:10049000F12C0F2EFDE0CF2EF1E0DF2EF02D612CA0
:1004A000712CF60101900020E9F73197ED50F140F1
:1004B000F1F1AFE3BFE11197F1F700C00000BFEF2A
:1004C000EB1AFB0AD6010D900020E9F71197AD5009
:1004D000B140EA17FB0759F51E161F0644F50F2E0B
:1004E000FDE0AF2EF1E0BF2EF02D8F01035F1E4F18
:1004F000862C972C8A818983F50181915F018A83FB
:1005000042E050E061E970E0CE0101960E94D9031B
:10051000892B51F0C4010196F2E08F16910419F471
:100520000E94D60113C04C01A016B10619F78FE93D
:100530009FE00197F1F700C000009FEFE91AF90A68
:10054000A0E6EA16AAEEFA0608F4ABCF0F900F90D9
:10055000DF91CF911F910F91FF90EF90DF90CF909F
:10056000BF90AF909F908F907F906F90089580EC98
:100570000E94490084E990E00E94DA002FEF86E7AC
:1005800091E0215080409040E1F700C000006AE90E
:1005900070E08DE091E00E94E703892B71F10E94E9
:1005A000360280EAEDE0F1E0DF011D928A95E9F77D
:1005B000BFEF20E782E0B15020408040E1F700C06B
:1005C00000000E949D000E94A10069E08DE990E07A
:1005D0000E94880080EC0E94490087EA90E00E9417
:1005E000DA000E9436029FEFA3EFB1E09150A040E5
:1005F000B040E1F700C0000008950E94A10065E04E
:1006000082EB90E00E948800B2CF0F931F93CF93AC
:10061000DF93CDB7DEB72A970FB6F894DEBF0FBED3
:10062000CDBF8FEF8ABB87E087BB1092B3011092DA
:10063000B2010E945A0060E875E280E090E00E94FA
:10064000B60078940E94A10060E188EB90E00E94DF
:1006500088002FEF84E694E0215080409040E1F73D
:1006600000C000000E949D000E94A10062E089EC91
:1006700090E00E9488000E94B7020E949D0088EED0
:1006800093E09093B0018093AF0183E08F9388EE65
:100690008F938CEC90E09F938F938E010F5F1F4F91
:1006A0001F930F930E940104B80182ED90E00E9415
:1006B0000F01F80101900020E9F73197AF01401BCD
:1006C000510B60E070E0C8010E94D20360E188ED48
:1006D00090E00E9488002FEF8AE693E0215080404E
:1006E0009040E1F700C000000E949D006EE089EE9E
:1006F00090E00E9488002FEF86E791E02150804033
:100700009040E1F700C000000E949D0066E088EF85
:1007100090E00E9488002FEF86E791E02150804012
:100720009040E1F700C000000E949D000E94A201DD
:100730006BE08FEF90E00E9488000F900F900F9079
:100740000F900F900F9080E090E02A960FB6F894EB
:10075000DEBF0FBECDBFDF91CF911F910F910895E6
:10076000A1E21A2EAA1BBB1BFD010DC0AA1FBB1FB5
:10077000EE1FFF1FA217B307E407F50720F0A21B27
:10078000B30BE40BF50B661F771F881F991F1A9494
:1007900069F760957095809590959B01AC01BD01BE
:1007A000CF010895DC0101C06D9341505040E0F746
:1007B0000895FB01DC014150504030F08D910190D3
:1007C000801919F40020B9F7881B990B0895FB01D3
:1007D00051915523A9F0BF01DC014D9145174111FD
:1007E000E1F759F4CD010190002049F04D914015F9
:1007F0004111C9F3FB014111EFCF81E090E0019776
:100800000895AEE0B0E0E7E0F4E00C94C2060D8994
:100810001E8986E08C831A8309838FEF9FE79E836E
:100820008D83AE01475E5F4F6F89788DCE01019653
:100830000E942304EF81F885E00FF11F10822E96AD
:10084000E4E00C94DE06ABE0B0E0E9E2F4E00C9406
:10085000B4066C017B018A01FC0117821682838138
:1008600081FFCCC1CE0101963C01F6019381F701D5
:1008700093FD859193FF81917F01882309F4BAC18B
:10088000853239F493FD859193FF81917F01853203
:1008900029F4B60190E00E941A06E7CF912C212C92
:1008A000312CFFE1F315D8F08B3279F038F4803237
:1008B00079F08332A1F4232D20611DC08D3261F0C7
:1008C000803369F4232D216016C0832D8260382E79
:1008D000E32DE4603E2E2AC0F32DF8601DC037FCE6
:1008E0002DC020ED280F2A3040F08E32B9F436FCAE
:1008F00081C1232D2064322E19C036FE06C08AE045
:10090000989E200D1124922E11C0EAE02E9E200DFB
:100910001124222EF32DF0623F2E08C08C3621F4D4
:10092000832D8068382E02C0883641F4F70193FD8C
:10093000859193FF81917F018111B3CF982F9F7D86
:100940009554933028F40C5F1F4F9FE399830DC09B
:10095000833631F0833771F0833509F059C021C0F7
:10096000F801808189830E5F1F4F88248394912C26
:10097000530113C02801F2E04F0E511CF801A08072
:10098000B18036FE03C0692D70E002C06FEF7FEFCB
:10099000C5010E940F064C018201F32DFF773F2E07
:1009A00016C0280122E0420E511CF801A080B1803F
:1009B00036FE03C0692D70E002C06FEF7FEFC50106
:1009C0000E9404064C01F32DF0683F2E820133FC97
:1009D0001BC0822D90E088169906B0F4B60180E223
:1009E00090E00E941A062A94F4CFF50137FC859115
:1009F00037FE81915F01B60190E00E941A06211036
:100A00002A9421E0821A91088114910471F7E8C0B8
:100A1000843611F0893641F5F80137FE07C0608150
:100A20007181828193810C5F1F4F08C06081718149
:100A3000072E000C880B990B0E5F1F4FF32DFF76CE
:100A40003F2E97FF09C090958095709561957F4FD7
:100A50008F4F9F4FF0683F2E2AE030E0A3010E94A5
:100A60005606882E861845C0853731F4232D2F7EF3
:100A7000B22E2AE030E025C0932D997FB92E8F3613
:100A8000C1F018F4883579F0B5C0803719F088378F
:100A900021F0B0C0E92FE061BE2EB4FE0DC0FB2DE9
:100AA000F460BF2E09C034FE0AC0292F2660B22E82
:100AB00006C028E030E005C020E130E002C020E1BF
:100AC00032E0F801B7FE07C06081718182819381B5
:100AD0000C5F1F4F06C06081718180E090E00E5F67
:100AE0001F4FA3010E945606882E8618FB2DFF7704
:100AF0003F2E36FE0DC0232D2E7FA22E891458F4D2
:100B000034FE0BC032FC09C0832D8E7EA82E05C09A
:100B1000B82CA32C03C0B82C01C0B92CA4FE0FC064
:100B2000FE01E80DF11D8081803321F49A2D997E1C
:100B3000A92E09C0A2FE06C0B394B39404C08A2DA6
:100B4000867809F0B394A3FC11C0A0FE06C0B214CD
:100B500088F4280C922C9B180EC0B21460F4B601D5
:100B600080E290E00E941A06B394F7CFB21418F412
:100B70002B1802C0982C212CA4FE10C0B60180E3D3
:100B800090E00E941A06A2FE17C0A1FC03C088E7ED
:100B900090E002C088E590E0B6010CC08A2D86780E
:100BA00059F0A1FE02C08BE201C080E2A7FC8DE2F9
:100BB000B60190E00E941A06891438F4B60180E369
:100BC00090E00E941A069A94F7CF8A94F301E80DF8
:100BD000F11D8081B60190E00E941A068110F5CFC8
:100BE000222009F442CEB60180E290E00E941A066B
:100BF0002A94F6CFF6018681978102C08FEF9FEF8E
:100C00002B96E2E10C94D006FC01059061507040F7
:100C10000110D8F7809590958E0F9F1F0895FC01C5
:100C20006150704001900110D8F7809590958E0F1B
:100C30009F1F08950F931F93CF93DF93FB01238191
:100C400021FD03C08FEF9FEF2CC022FF16C046810D
:100C50005781248135814217530744F4A081B18123
:100C60009D012F5F3F4F318320838C9326813781F5
:100C70002F5F3F4F3783268314C08B01EC01FB01AC
:100C80000084F185E02D0995892BE1F6D8011696AF
:100C90008D919C911797019617969C938E9316971A
:100CA000CE01DF91CF911F910F910895FA01AA27EC
:100CB000283051F1203181F1E8946F936E7F6E5F9F
:100CC0007F4F8F4F9F4FAF4FB1E03ED0B4E03CD04D
:100CD000670F781F891F9A1FA11D680F791F8A1F30
:100CE000911DA11D6A0F711D811D911DA11D20D097
:100CF00009F468943F912AE0269F11243019305D51
:100D00003193DEF6CF010895462F4770405D419341
:100D1000B3E00FD0C9F7F6CF462F4F70405D4A338E
:100D200018F0495D31FD4052419302D0A9F7EACF56
:100D3000B4E0A6959795879577956795BA95C9F785
:100D400000976105710508959B01AC010A2E069478
:100D50005795479537952795BA95C9F7620F731F31
:100D6000841F951FA01D08952F923F924F925F926E
:100D70006F927F928F929F92AF92BF92CF92DF92AB
:100D8000EF92FF920F931F93CF93DF93CDB7DEB710
:100D9000CA1BDB0B0FB6F894DEBF0FBECDBF0994A4
:100DA0002A88398848885F846E847D848C849B84FB
:100DB000AA84B984C884DF80EE80FD800C811B8109
:100DC000AA81B981CE0FD11D0FB6F894DEBF0FBE38
:0A0DD000CDBFED010895F894FFCFA8
:100DDA00303737353439393932300041542B434DA5
:100DEA0047533D222573220D0041544423313131AA
:100DFA0023322325732325642331323334233B0DD5
:100E0A00000D0A00415445300D004F4B00546578DF
:100E1A0074204D6F64650041542B434D47463D3164
:100E2A000D004572726F720047534D20496E697406
:100E3A0069616C697A696E67004154004C482025E3
:100E4A0064003737313130002E2E2E2E2E53656E28
:100E5A0064696E672E2E2E2E0053656E7420746F91
:100E6A00204C6974746C6500486561727473005231
:0C0E7A00656C6F61642073656E6400009D
:00000001FF
