S01200005350495F6D61737465722E737265633B
S11300000C942A000C9447000C9447000C9447006D
S11300100C9447000C9447000C9447000C94470040
S11300200C9447000C9447000C9447000C94470030
S11300300C9447000C9447000C9447000C94470020
S11300400C9447000C9447000C9447000C94470010
S11300500C94470011241FBECFE5D8E0DEBFCDBF0E
S113006011E0A0E6B0E0EAE9F8E002C005900D92E4
S1130070A632B107D9F721E0A6E2B1E001C01D9292
S1130080A833B207E1F70E94AF030C944B040C941D
S1130090000087B3806B87BBBE98C49A81E58DB995
S11300A0709808958FB9779BFECF8FB108958FEF25
S11300B08FB9779BFECF8FB10895C098C198982FC0
S11300C0907F95BB909AEFE9FFE03197F1F700C07C
S11300D0000090988295807F85BB909A8FE99FE07D
S11300E00197F1F700C0000090980895C09AC19854
S11300F0982F907F95BB909AEFE3FFE13197F1F74A
S113010000C0000090988295807F85BB909A8FE311
S11301109FE10197F1F700C0000090980895CF93F4
S1130120DF93EC018881882339F0219690E00E94C6
S1130130760089918111FACFDF91CF9108958FEFE5
S113014084BB889A87EF87BB909883E30E945D0005
S113015082E30E945D0088E20E945D008EE00E94BE
S11301605D0080E690E00E948F002FEF83EF91E026
S1130170215080409040E1F700C0000081E00E94DF
S11301805D0088E690E00E948F0080EC0E945D0094
S113019089E790E00E948F002FEF83EF91E02150D8
S11301A080409040E1F700C0000081E00E945D00C3
S11301B080E80E945D0085E890E00E948F002FEFA8
S11301C083EF91E0215080409040E1F700C00000AF
S11301D080EC0E945D0086E990E00E948F00089503
S11301E08EEF8BBBCC9908C08FED9EE20197F1F79F
S11301F000C0000087E30895CD9908C08FED9EE20A
S11302000197F1F700C0000088E30895CE9908C073
S11302108FED9EE20197F1F700C0000089E3089595
S1130220CF9908C08FED9EE20197F1F700C000005E
S11302308FE208958DEF8BBBCC9908C08FED9EE2C1
S11302400197F1F700C0000084E30895CD9908C038
S11302508FED9EE20197F1F700C0000085E3089559
S1130260CE9908C08FED9EE20197F1F700C000001F
S113027086E30895CF9908C08FED9EE20197F1F7C8
S113028000C000008BE208958BEF8BBBCC9908C0B3
S11302908FED9EE20197F1F700C0000081E308951D
S11302A0CD9908C08FED9EE20197F1F700C00000E0
S11302B082E30895CE9908C08FED9EE20197F1F78D
S11302C000C0000083E30895CF9908C08FED9EE23B
S11302D00197F1F700C000008DE2089587EF8BBB12
S11302E0CC9908C08FED9EE20197F1F700C00000A1
S11302F083E40895CD9908C08FED9EE20197F1F74C
S113030000C0000080E30895CE9908C08FED9EE2FE
S11303100197F1F700C000008DE30895CF9908C05C
S11303208FED9EE20197F1F700C000008AE2089584
S113033008958F929F92AF92BF92CF92DF92EF92E5
S1130340FF920F931F93CF93DF93CDB7DEB72A9716
S11303500FB6F894DEBF0FBECDBF8FE08ABB0E94FC
S11303609F0000E010E0E12CF12C0F2EF0EF9F2E07
S1130370F02D0F2EF3E0AF2EB12CF02D6894CC2489
S1130380C1F8D12C9BBA89B3803FE1F38FE19EE49D
S11303900197F1F700C000000E94F000882E9AE255
S11303A08913ABC081E090E00E945D0080E890E09A
S11303B00E945D0085EA90E00E948F0080EC90E04E
S11303C00E945D0083EB90E00E948F002FEF81EE8E
S11303D094E0215080409040E1F700C0000081E0AB
S11303E090E00E945D0080E890E00E945D008DEB4B
S11303F090E00E948F0089B3803FE9F30E94F000EF
S11304008133C9F481E090E090932901809328011D
S11304108FE19EE40197F1F700C0000080E890E0CE
S11304200E945D0083EA90E00E948F0081E090E0EA
S11304300E945D00A7CF823309F057C0D0922901F2
S1130440C092280181E090E090932B0180932A01CF
S11304508FE19EE40197F1F700C0000080E890E08E
S11304600E945D0083EA90E00E948F0081E090E0AA
S11304700E945D0086EC90E00E948F0080EC90E08A
S11304800E945D0082E790E00E948F0080E890E087
S11304900E945D009FEF21EE84E091502040804057
S11304A0E1F700C0000081E090E00E945D0086ED6D
S11304B090E00E948F0080EC90E00E945D0081EE4D
S11304C090E00E948F0080E890E00E945D009FEF22
S11304D021EE84E0915020408040E1F700C000000C
S11304E081E090E00E945D004DCF833309F083CF1B
S11304F0B0922901A09228017ECF9DE38917D9F0FB
S113050090E00E94760080912A0190912B0101973E
S113051059F4E1E0F0E0EC0FFD1FEE0DFF1D8082C9
S11305202FEFE21AF20A2ECFF801E25DFE4F80822D
S11305300F5F1F4F27CF10922B0110922A0181E0E9
S113054090E00E945D0088EE90E00E948F0080ECB5
S113055090E00E945D00CE0101960E948F0080E829
S113056090E00E945D00CE0101960E9425042FEFC9
S113057081EE94E0215080409040E1F700C00000FB
S113058081E090E00E945D002FEF81EE94E0215025
S113059080409040E1F700C0000081E090E00E94BC
S11305A05D0080E090E02A960FB6F894DEBF0FBE9F
S11305B0CDBFDF91CF911F910F91FF90EF90DF900E
S11305C0CF90BF90AF909F908F90089581B3806F2C
S11305D081BB8B98939A8A98929A839BFECF829B35
S11305E0FCCF829947C08399FECF809126019091D8
S11305F0270101969093270180932601949A959858
S1130600969897982FEF89EF90E021508040904082
S1130610E1F700C00000949A95989698979A8FE70E
S11306209EE30197F1F700C000009498959896987E
S1130630979A9FEF29EF80E0915020408040E1F7A6
S113064000C00000949A95989698979A8FE79EE335
S11306500197F1F700C00000949A9598969897989E
S11306609FEF29EF80E0915020408040E1F700C0E7
S113067000003DC08399B5CF949A95989698979821
S11306809FEF29EF80E0915020408040E1F700C0C7
S11306900000949A9598969A97988FE79EE301970D
S11306A0F1F700C0000094989598969A97989FEF58
S11306B029EF80E0915020408040E1F700C0000025
S11306C0949A9598969A97988FE79EE30197F1F7F5
S11306D000C00000949A9598969897989FEF29EFF8
S11306E080E0915020408040E1F700C0000080E0AD
S11306F090E00895B39B30C081E00E945D0080E8E3
S11307000E945D008BEF90E00E948F0080EC0E94BD
S11307105D008AE091E00E948F0080E80E945D0005
S11307202FEF80E792E0215080409040E1F700C035
S1130730000081E00E945D008FE091E00E948F0044
S113074080EC0E945D0089E191E00E948F0080E8C6
S11307500E945D00B399D0CF80E090E008950F2E01
S1130760F8E2CF2EF1E0DF2EF02D0AE010E00F2E9C
S1130770F6E2EF2EF1E0FF2EF02D0E949901C091D8
S11307802C01D0912D010E944900C498F60180816A
S11307900E9452008091280190912901029791F4BE
S11307A00F2EFAE0AF2EB12CF02D8C2F9D2FB80117
S11307B00E94FD03C62FD72F0E945200F1E0AF1A0A
S11307C0B10899F78EE291E00E9425045C010E9431
S11307D05700882369F01A141B0454F4C0E0D0E0D5
S11307E00E947A030E94E6022196AC16BD06C1F768
S11307F0F70180810E945200C0CF97FB072E16F4A8
S1130800009407D077FD09D00E94110407FC05D09D
S11308103EF4909581959F4F0895709561957F4F13
S11308200895AA1BBB1B51E107C0AA1FBB1FA61733
S1130830B70710F0A61BB70B881F991F5A95A9F785
S113084080959095BC01CD010895FC0188279927D6
S1130850E89421912032E9F3293010F02E30C8F3C6
S11308602B3241F02D3239F4689404C00E944304C1
S1130870820F911D219120532A30C0F31EF49095CC
S113088081959F4F08957AE0979F902D879F802DA3
S10D0890910D11240895F894FFCF90
S113089A57454C434F4D4500456E74657220746844
S11308AA65204E756D626572006F662063616E73B2
S11308BA20616E64005072657373202B20746F205C
S11308CA7374617274007468652070726F636573FF
S11308DA73203A2000312D46617374204368617293
S11308EA676500322D457A204361736800332D44CD
S11308FA6F6E61746500456E746572207468652054
S113090A50686F6E65005072657373203D20746F72
S113091A0046696E69736800456E74657265642081
S113092A70686F6E65204E4F2E3A00446973636196
S113093A72642062696E2069730066756C6C004388
S113094A6C656172207468650064697363617264BA
S109095A2062696E00003A
S9030000FC
