:100000000C942A000C9434000C9434000C943400AA
:100010000C9434000C9434000C9434000C94340090
:100020000C9434000C9434000C9434000C94340080
:100030000C9434000C9434000C9434000C94340070
:100040000C9434000C9434000C9434000C94340060
:100050000C94340011241FBECFE5D8E0DEBFCDBF25
:100060000E9423010C9425010C94000081B3806F41
:1000700081BB81B3877F81BB82B3886082BB81B340
:100080008B7F81BB82B3846082BB839BFECF829BCC
:10009000FCCF82996CC08399FECF82B3806182BB12
:1000A00082B38F7D82BB82B38F7B82BB82B38F771B
:1000B00082BB2FEF80E792E0215080409040E1F733
:1000C00000C0000082B3806182BB82B38F7D82BB9F
:1000D00082B38F7B82BB82B3806882BB2FEF89EFB4
:1000E00090E0215080409040E1F700C0000082B3D2
:1000F0008F7E82BB82B38F7D82BB82B38F7B82BBBC
:1001000082B3806882BB2FEF80E792E0215080406D
:100110009040E1F700C0000082B3806182BB82B3EF
:100120008F7D82BB82B38F7B82BB82B3806882BBB0
:100130002FEF89EF90E0215080409040E1F700C020
:10014000000082B3806182BB82B38F7D82BB82B3A9
:100150008F7B82BB82B38F7782BB2FEF80E792E0E9
:10016000215080409040E1F700C0000092CF839979
:1001700090CF82B3806182BB82B38F7D82BB82B31A
:100180008F7B82BB82B38F7782BB2FEF80E792E0B9
:10019000215080409040E1F700C0000082B38061B0
:1001A00082BB82B38F7D82BB82B3806482BB82B309
:1001B0008F7782BB2FEF89EF90E0215080409040F5
:1001C000E1F700C0000082B38F7E82BB82B38F7DD7
:1001D00082BB82B3806482BB82B38F7782BB2FEFF6
:1001E00080E792E0215080409040E1F700C000009D
:1001F00082B3806182BB82B38F7D82BB82B3806415
:1002000082BB82B38F7782BB2FEF89EF90E02150C2
:1002100080409040E1F700C0000082B3806182BB63
:1002200082B38F7D82BB82B38F7B82BB82B38F7799
:1002300082BB2FEF80E792E0215080409040E1F7B1
:0E02400000C0000022CF0E943600F894FFCFCD
:00000001FF
