:100000000C942A000C9434000C9434000C943400AA
:100010000C9434000C9434000C9434000C94340090
:100020000C9434000C9434000C9434000C94340080
:100030000C9434000C9434000C9434000C94340070
:100040000C9434000C9434000C9434000C94340060
:100050000C94340011241FBECFE5D8E0DEBFCDBF25
:100060000E9444000C9475000C94000087B3806BD0
:1000700087BBBE98C49A81E58DB9709808958FB9F1
:10008000779BFECF8FB10895EF92FF920F931F934E
:10009000CF93DF9300D000D0CDB7DEB78BE699E6E3
:1000A0009A8389838EE690E09C838B830E9436003E
:1000B000C4988E010F5F1F4F7E0185E0E80EF11C92
:1000C000F80181918F010E943F000E151F05C1F7B5
:1000D00080E090E00F900F900F900F90DF91CF9104
:0E00E0001F910F91FF90EF900895F894FFCFBD
:00000001FF
